{
  "contractName": "Traceability",
  "abi": [
    {
      "constant": true,
      "inputs": [],
      "name": "seq",
      "outputs": [
        {
          "name": "",
          "type": "uint256"
        }
      ],
      "payable": false,
      "stateMutability": "view",
      "type": "function"
    },
    {
      "constant": true,
      "inputs": [
        {
          "name": "",
          "type": "uint256"
        }
      ],
      "name": "traceIdArr",
      "outputs": [
        {
          "name": "",
          "type": "uint256"
        }
      ],
      "payable": false,
      "stateMutability": "view",
      "type": "function"
    },
    {
      "inputs": [],
      "payable": false,
      "stateMutability": "nonpayable",
      "type": "constructor"
    },
    {
      "constant": false,
      "inputs": [
        {
          "name": "from",
          "type": "address"
        },
        {
          "name": "item",
          "type": "string"
        },
        {
          "name": "amount",
          "type": "uint256"
        }
      ],
      "name": "createTraceInfo",
      "outputs": [
        {
          "name": "success",
          "type": "bool"
        }
      ],
      "payable": false,
      "stateMutability": "nonpayable",
      "type": "function"
    },
    {
      "constant": false,
      "inputs": [
        {
          "name": "traceId",
          "type": "uint256"
        },
        {
          "name": "from",
          "type": "address"
        },
        {
          "name": "item",
          "type": "string"
        },
        {
          "name": "amount",
          "type": "uint256"
        }
      ],
      "name": "addTraceInfo",
      "outputs": [
        {
          "name": "success",
          "type": "bool"
        }
      ],
      "payable": false,
      "stateMutability": "nonpayable",
      "type": "function"
    },
    {
      "constant": true,
      "inputs": [
        {
          "name": "traceId",
          "type": "uint256"
        }
      ],
      "name": "viewTraceInfo",
      "outputs": [
        {
          "components": [
            {
              "name": "traceId",
              "type": "uint256"
            },
            {
              "components": [
                {
                  "name": "from",
                  "type": "address"
                },
                {
                  "name": "to",
                  "type": "address"
                },
                {
                  "name": "item",
                  "type": "string"
                },
                {
                  "name": "amount",
                  "type": "uint256"
                },
                {
                  "name": "timestamp",
                  "type": "uint256"
                }
              ],
              "name": "details",
              "type": "tuple"
            }
          ],
          "name": "",
          "type": "tuple[]"
        }
      ],
      "payable": false,
      "stateMutability": "view",
      "type": "function"
    }
  ],
  "bytecode": "0x608060405234801561001057600080fd5b5060018081905550610d20806100276000396000f3fe60806040526004361061006d576000357c0100000000000000000000000000000000000000000000000000000000900463ffffffff16806320278660146100725780633fe55bc8146100af578063493389fc146100ec5780636857ab4014610129578063f1268b0b14610154575b600080fd5b34801561007e57600080fd5b506100996004803603610094919081019061094f565b610191565b6040516100a69190610b70565b60405180910390f35b3480156100bb57600080fd5b506100d660048036036100d19190810190610926565b610328565b6040516100e39190610b4e565b60405180910390f35b3480156100f857600080fd5b50610113600480360361010e91908101906108bf565b61051b565b6040516101209190610b70565b60405180910390f35b34801561013557600080fd5b5061013e6106f6565b60405161014b9190610b8b565b60405180910390f35b34801561016057600080fd5b5061017b60048036036101769190810190610926565b6106fc565b6040516101889190610b8b565b60405180910390f35b600061019b61071f565b604080519081016040528087815260200160a0604051908101604052808873ffffffffffffffffffffffffffffffffffffffff1681526020013373ffffffffffffffffffffffffffffffffffffffff1681526020018781526020018681526020014281525081525090506002600087815260200190815260200160002081908060018154018082558091505090600182039060005260206000209060060201600090919290919091506000820151816000015560208201518160010160008201518160000160006101000a81548173ffffffffffffffffffffffffffffffffffffffff021916908373ffffffffffffffffffffffffffffffffffffffff16021790555060208201518160010160006101000a81548173ffffffffffffffffffffffffffffffffffffffff021916908373ffffffffffffffffffffffffffffffffffffffff1602179055506040820151816002019080519060200190610301929190610740565b50606082015181600301556080820151816004015550505050506001915050949350505050565b606060026000838152602001908152602001600020805480602002602001604051908101604052809291908181526020016000905b828210156105105783829060005260206000209060060201604080519081016040529081600082015481526020016001820160a060405190810160405290816000820160009054906101000a900473ffffffffffffffffffffffffffffffffffffffff1673ffffffffffffffffffffffffffffffffffffffff1673ffffffffffffffffffffffffffffffffffffffff1681526020016001820160009054906101000a900473ffffffffffffffffffffffffffffffffffffffff1673ffffffffffffffffffffffffffffffffffffffff1673ffffffffffffffffffffffffffffffffffffffff168152602001600282018054600181600116156101000203166002900480601f0160208091040260200160405190810160405280929190818152602001828054600181600116156101000203166002900480156104e05780601f106104b5576101008083540402835291602001916104e0565b820191906000526020600020905b8154815290600101906020018083116104c357829003601f168201915b5050505050815260200160038201548152602001600482015481525050815250508152602001906001019061035d565b505050509050919050565b6000806001549050600160008154809291906001019190505550600081908060018154018082558091505090600182039060005260206000200160009091929091909150555061056961071f565b604080519081016040528083815260200160a0604051908101604052808973ffffffffffffffffffffffffffffffffffffffff1681526020013373ffffffffffffffffffffffffffffffffffffffff1681526020018881526020018781526020014281525081525090506002600083815260200190815260200160002081908060018154018082558091505090600182039060005260206000209060060201600090919290919091506000820151816000015560208201518160010160008201518160000160006101000a81548173ffffffffffffffffffffffffffffffffffffffff021916908373ffffffffffffffffffffffffffffffffffffffff16021790555060208201518160010160006101000a81548173ffffffffffffffffffffffffffffffffffffffff021916908373ffffffffffffffffffffffffffffffffffffffff16021790555060408201518160020190805190602001906106cf929190610740565b50606082015181600301556080820151816004015550505050506001925050509392505050565b60015481565b60008181548110151561070b57fe5b906000526020600020016000915090505481565b60c0604051908101604052806000815260200161073a6107c0565b81525090565b828054600181600116156101000203166002900490600052602060002090601f016020900481019282601f1061078157805160ff19168380011785556107af565b828001600101855582156107af579182015b828111156107ae578251825591602001919060010190610793565b5b5090506107bc919061081c565b5090565b60a060405190810160405280600073ffffffffffffffffffffffffffffffffffffffff168152602001600073ffffffffffffffffffffffffffffffffffffffff1681526020016060815260200160008152602001600081525090565b61083e91905b8082111561083a576000816000905550600101610822565b5090565b90565b600061084d8235610c77565b905092915050565b600082601f830112151561086857600080fd5b813561087b61087682610bd3565b610ba6565b9150808252602083016020830185838301111561089757600080fd5b6108a2838284610c93565b50505092915050565b60006108b78235610c89565b905092915050565b6000806000606084860312156108d457600080fd5b60006108e286828701610841565b935050602084013567ffffffffffffffff8111156108ff57600080fd5b61090b86828701610855565b925050604061091c868287016108ab565b9150509250925092565b60006020828403121561093857600080fd5b6000610946848285016108ab565b91505092915050565b6000806000806080858703121561096557600080fd5b6000610973878288016108ab565b945050602061098487828801610841565b935050604085013567ffffffffffffffff8111156109a157600080fd5b6109ad87828801610855565b92505060606109be878288016108ab565b91505092959194509250565b6109d381610c2f565b82525050565b60006109e482610c0c565b808452602084019350836020820285016109fd85610bff565b60005b84811015610a36578383038852610a18838351610b02565b9250610a2382610c22565b9150602088019750600181019050610a00565b508196508694505050505092915050565b610a5081610c41565b82525050565b6000610a6182610c17565b808452610a75816020860160208601610ca2565b610a7e81610cd5565b602085010191505092915050565b600060a083016000830151610aa460008601826109ca565b506020830151610ab760208601826109ca565b5060408301518482036040860152610acf8282610a56565b9150506060830151610ae46060860182610b3f565b506080830151610af76080860182610b3f565b508091505092915050565b6000604083016000830151610b1a6000860182610b3f565b5060208301518482036020860152610b328282610a8c565b9150508091505092915050565b610b4881610c6d565b82525050565b60006020820190508181036000830152610b6881846109d9565b905092915050565b6000602082019050610b856000830184610a47565b92915050565b6000602082019050610ba06000830184610b3f565b92915050565b6000604051905081810181811067ffffffffffffffff82111715610bc957600080fd5b8060405250919050565b600067ffffffffffffffff821115610bea57600080fd5b601f19601f8301169050602081019050919050565b6000602082019050919050565b600081519050919050565b600081519050919050565b6000602082019050919050565b6000610c3a82610c4d565b9050919050565b60008115159050919050565b600073ffffffffffffffffffffffffffffffffffffffff82169050919050565b6000819050919050565b6000610c8282610c4d565b9050919050565b6000819050919050565b82818337600083830152505050565b60005b83811015610cc0578082015181840152602081019050610ca5565b83811115610ccf576000848401525b50505050565b6000601f19601f830116905091905056fea265627a7a72305820c01aa79f93c4af4e64009b8255792d721e2f90a6d4b875dccb6ef14d46f6493c6c6578706572696d656e74616cf50037",
  "source": "pragma solidity ^0.5.0;\npragma experimental ABIEncoderV2;\n\ncontract Traceability {\n  // an array of traceIDs\n  uint256[] public traceIdArr;\n  uint256 public seq;\n\n  struct TraceInfo{\n    uint256 traceId;\n    Details details;\n  }\n  // Model Details\n  struct Details{\n    address from; //どこから\n    address to; //どこへ\n    string item; //何を\n    uint256 amount; //どれだけ\n    uint256 timestamp; //いつ\n    // more .. from IoT device\n  }\n\n  // Store a track of traceId\n  mapping(uint256 => TraceInfo[]) histories;\n\n  constructor() public {\n    seq = 1;\n  }\n\n  /**\n   * 新しいトレース情報を作成\n   */\n  function createTraceInfo(address from, string memory item, uint amount) public returns (bool success){\n    // traceId\n    uint256 currentSeq = seq;\n    seq ++;\n    traceIdArr.push(currentSeq);\n\n    // traceInfo\n    TraceInfo memory setup = TraceInfo(currentSeq, Details(from, msg.sender, item, amount, now));\n    histories[currentSeq].push(setup);\n    return true;\n  }\n\n  /**\n   * トレース情報の追記\n   */\n  function addTraceInfo(uint traceId, address from, string memory item, uint amount) public returns (bool success){\n    \n    TraceInfo memory setup = TraceInfo(traceId, Details(from, msg.sender, item, amount, now));\n    histories[traceId].push(setup);\n    return true;\n  }\n\n  /** \n   * トレース情報を参照\n   */\n  function viewTraceInfo (uint traceId) public view returns (TraceInfo[] memory) {\n\n    return histories[traceId];    \n  }\n\n}\n",
  "sourcePath": "/Users/gotokana/projects/sol-sample1/contracts/Traceability.sol",
  "compiler": {
    "name": "solc",
    "version": "0.5.0+commit.1d4f565a.Emscripten.clang"
  },
  "schemaVersion": "3.0.6",
  "updatedAt": "2019-05-11T05:30:25.644Z",
  "devdoc": {
    "methods": {}
  },
  "userdoc": {
    "methods": {
      "addTraceInfo(uint256,address,string,uint256)": {
        "notice": "トレース情報の追記"
      },
      "createTraceInfo(address,string,uint256)": {
        "notice": "新しいトレース情報を作成"
      },
      "viewTraceInfo(uint256)": {
        "notice": "トレース情報を参照"
      }
    }
  }
}